{
  "_format": "hh-sol-artifact-1",
  "contractName": "wrapper",
  "sourceName": "contracts/wrappermock.sol",
  "abi": [
    {
      "inputs": [
        {
          "internalType": "uint256",
          "name": "bpWrapFeeInput",
          "type": "uint256"
        },
        {
          "internalType": "uint256",
          "name": "bpUnwrapFeeInput",
          "type": "uint256"
        },
        {
          "internalType": "address",
          "name": "suncoinAddressInput",
          "type": "address"
        },
        {
          "internalType": "address",
          "name": "linkAddressInput",
          "type": "address"
        }
      ],
      "stateMutability": "nonpayable",
      "type": "constructor"
    },
    {
      "inputs": [
        {
          "internalType": "uint256",
          "name": "bpUnwrapFeeInput",
          "type": "uint256"
        }
      ],
      "name": "changeUnwrapFee",
      "outputs": [],
      "stateMutability": "nonpayable",
      "type": "function"
    },
    {
      "inputs": [
        {
          "internalType": "uint256",
          "name": "bpWrapFeeInput",
          "type": "uint256"
        }
      ],
      "name": "changeWrapFee",
      "outputs": [],
      "stateMutability": "nonpayable",
      "type": "function"
    },
    {
      "inputs": [
        {
          "internalType": "uint256",
          "name": "amount",
          "type": "uint256"
        }
      ],
      "name": "unwrap",
      "outputs": [],
      "stateMutability": "nonpayable",
      "type": "function"
    },
    {
      "inputs": [
        {
          "internalType": "uint256",
          "name": "amount",
          "type": "uint256"
        }
      ],
      "name": "unwrapLink",
      "outputs": [],
      "stateMutability": "nonpayable",
      "type": "function"
    },
    {
      "inputs": [],
      "name": "wrap",
      "outputs": [],
      "stateMutability": "payable",
      "type": "function"
    },
    {
      "inputs": [
        {
          "internalType": "uint256",
          "name": "amount",
          "type": "uint256"
        }
      ],
      "name": "wrapLink",
      "outputs": [],
      "stateMutability": "nonpayable",
      "type": "function"
    }
  ],
  "bytecode": "0x60806040523480156200001157600080fd5b506040516200120a3803806200120a8339818101604052810190620000379190620002b1565b816000806101000a81548173ffffffffffffffffffffffffffffffffffffffff021916908373ffffffffffffffffffffffffffffffffffffffff16021790555080600160006101000a81548173ffffffffffffffffffffffffffffffffffffffff021916908373ffffffffffffffffffffffffffffffffffffffff16021790555033600460006101000a81548173ffffffffffffffffffffffffffffffffffffffff021916908373ffffffffffffffffffffffffffffffffffffffff1602179055506200010a846200012560201b60201c565b6200011b83620001d460201b60201c565b50505050620004b4565b600460009054906101000a900473ffffffffffffffffffffffffffffffffffffffff1673ffffffffffffffffffffffffffffffffffffffff163373ffffffffffffffffffffffffffffffffffffffff16146200018057600080fd5b806002819055506127106002541115620001d1576040517f08c379a0000000000000000000000000000000000000000000000000000000008152600401620001c8906200040f565b60405180910390fd5b50565b600460009054906101000a900473ffffffffffffffffffffffffffffffffffffffff1673ffffffffffffffffffffffffffffffffffffffff163373ffffffffffffffffffffffffffffffffffffffff16146200022f57600080fd5b80600381905550612710600354111562000280576040517f08c379a00000000000000000000000000000000000000000000000000000000081526004016200027790620003ed565b60405180910390fd5b50565b600081519050620002948162000480565b92915050565b600081519050620002ab816200049a565b92915050565b60008060008060808587031215620002c857600080fd5b6000620002d8878288016200029a565b9450506020620002eb878288016200029a565b9350506040620002fe8782880162000283565b9250506060620003118782880162000283565b91505092959194509250565b60006200032c60238362000431565b91507f756e77726170206665652070657263656e74616765206d6f7265207468616e2060008301527f31303000000000000000000000000000000000000000000000000000000000006020830152604082019050919050565b60006200039460218362000431565b91507f77726170206665652070657263656e74616765206d6f7265207468616e20313060008301527f30000000000000000000000000000000000000000000000000000000000000006020830152604082019050919050565b6000602082019050818103600083015262000408816200031d565b9050919050565b600060208201905081810360008301526200042a8162000385565b9050919050565b600082825260208201905092915050565b60006200044f8262000456565b9050919050565b600073ffffffffffffffffffffffffffffffffffffffff82169050919050565b6000819050919050565b6200048b8162000442565b81146200049757600080fd5b50565b620004a58162000476565b8114620004b157600080fd5b50565b610d4680620004c46000396000f3fe6080604052600436106100555760003560e01c8063769c19261461005a5780637a291126146100835780637ab4c8be146100ac578063d46eb119146100d5578063de0e9a3e146100df578063e363839914610108575b600080fd5b34801561006657600080fd5b50610081600480360381019061007c9190610959565b610131565b005b34801561008f57600080fd5b506100aa60048036038101906100a59190610959565b610302565b005b3480156100b857600080fd5b506100d360048036038101906100ce9190610959565b6103ad565b005b6100dd61053d565b005b3480156100eb57600080fd5b5061010660048036038101906101019190610959565b6106a7565b005b34801561011457600080fd5b5061012f600480360381019061012a9190610959565b61085b565b005b60006127106002546127106101469190610c08565b836101519190610bae565b61015b9190610b7d565b9050600160009054906101000a900473ffffffffffffffffffffffffffffffffffffffff1673ffffffffffffffffffffffffffffffffffffffff166323b872dd3330856040518463ffffffff1660e01b81526004016101bc93929190610aac565b602060405180830381600087803b1580156101d657600080fd5b505af11580156101ea573d6000803e3d6000fd5b505050506040513d601f19601f8201168201806040525081019061020e9190610930565b506000610250576040517f08c379a000000000000000000000000000000000000000000000000000000000815260040161024790610b4c565b60405180910390fd5b60008054906101000a900473ffffffffffffffffffffffffffffffffffffffff1673ffffffffffffffffffffffffffffffffffffffff1663a9059cbb33846040518363ffffffff1660e01b81526004016102ab929190610ae3565b602060405180830381600087803b1580156102c557600080fd5b505af11580156102d9573d6000803e3d6000fd5b505050506040513d601f19601f820116820180604052508101906102fd9190610930565b505050565b600460009054906101000a900473ffffffffffffffffffffffffffffffffffffffff1673ffffffffffffffffffffffffffffffffffffffff163373ffffffffffffffffffffffffffffffffffffffff161461035c57600080fd5b8060028190555061271060025411156103aa576040517f08c379a00000000000000000000000000000000000000000000000000000000081526004016103a190610b2c565b60405180910390fd5b50565b60006127106003546127106103c29190610c08565b836103cd9190610bae565b6103d79190610b7d565b905060008054906101000a900473ffffffffffffffffffffffffffffffffffffffff1673ffffffffffffffffffffffffffffffffffffffff166323b872dd3330856040518463ffffffff1660e01b815260040161043693929190610aac565b602060405180830381600087803b15801561045057600080fd5b505af1158015610464573d6000803e3d6000fd5b505050506040513d601f19601f820116820180604052508101906104889190610930565b50600160009054906101000a900473ffffffffffffffffffffffffffffffffffffffff1673ffffffffffffffffffffffffffffffffffffffff1663a9059cbb33846040518363ffffffff1660e01b81526004016104e6929190610ae3565b602060405180830381600087803b15801561050057600080fd5b505af1158015610514573d6000803e3d6000fd5b505050506040513d601f19601f820116820180604052508101906105389190610930565b505050565b60006127106002546127106105529190610c08565b3461055d9190610bae565b6105679190610b7d565b905060008054906101000a900473ffffffffffffffffffffffffffffffffffffffff1673ffffffffffffffffffffffffffffffffffffffff166340c10f1930346040518363ffffffff1660e01b81526004016105c4929190610ae3565b600060405180830381600087803b1580156105de57600080fd5b505af11580156105f2573d6000803e3d6000fd5b5050505060008054906101000a900473ffffffffffffffffffffffffffffffffffffffff1673ffffffffffffffffffffffffffffffffffffffff1663a9059cbb33346040518363ffffffff1660e01b8152600401610651929190610ae3565b602060405180830381600087803b15801561066b57600080fd5b505af115801561067f573d6000803e3d6000fd5b505050506040513d601f19601f820116820180604052508101906106a39190610930565b5050565b60006127106003546127106106bc9190610c08565b836106c79190610bae565b6106d19190610b7d565b905060008054906101000a900473ffffffffffffffffffffffffffffffffffffffff1673ffffffffffffffffffffffffffffffffffffffff166323b872dd3330856040518463ffffffff1660e01b815260040161073093929190610aac565b602060405180830381600087803b15801561074a57600080fd5b505af115801561075e573d6000803e3d6000fd5b505050506040513d601f19601f820116820180604052508101906107829190610930565b5060008054906101000a900473ffffffffffffffffffffffffffffffffffffffff1673ffffffffffffffffffffffffffffffffffffffff16639dc29fac30846040518363ffffffff1660e01b81526004016107de929190610ae3565b600060405180830381600087803b1580156107f857600080fd5b505af115801561080c573d6000803e3d6000fd5b505050503373ffffffffffffffffffffffffffffffffffffffff166108fc829081150290604051600060405180830381858888f19350505050158015610856573d6000803e3d6000fd5b505050565b600460009054906101000a900473ffffffffffffffffffffffffffffffffffffffff1673ffffffffffffffffffffffffffffffffffffffff163373ffffffffffffffffffffffffffffffffffffffff16146108b557600080fd5b806003819055506127106003541115610903576040517f08c379a00000000000000000000000000000000000000000000000000000000081526004016108fa90610b0c565b60405180910390fd5b50565b60008151905061091581610ce2565b92915050565b60008135905061092a81610cf9565b92915050565b60006020828403121561094257600080fd5b600061095084828501610906565b91505092915050565b60006020828403121561096b57600080fd5b60006109798482850161091b565b91505092915050565b61098b81610c3c565b82525050565b600061099e602383610b6c565b91507f756e77726170206665652070657263656e74616765206d6f7265207468616e2060008301527f31303000000000000000000000000000000000000000000000000000000000006020830152604082019050919050565b6000610a04602183610b6c565b91507f77726170206665652070657263656e74616765206d6f7265207468616e20313060008301527f30000000000000000000000000000000000000000000000000000000000000006020830152604082019050919050565b6000610a6a600583610b6c565b91507f64656275670000000000000000000000000000000000000000000000000000006000830152602082019050919050565b610aa681610c7a565b82525050565b6000606082019050610ac16000830186610982565b610ace6020830185610982565b610adb6040830184610a9d565b949350505050565b6000604082019050610af86000830185610982565b610b056020830184610a9d565b9392505050565b60006020820190508181036000830152610b2581610991565b9050919050565b60006020820190508181036000830152610b45816109f7565b9050919050565b60006020820190508181036000830152610b6581610a5d565b9050919050565b600082825260208201905092915050565b6000610b8882610c7a565b9150610b9383610c7a565b925082610ba357610ba2610cb3565b5b828204905092915050565b6000610bb982610c7a565b9150610bc483610c7a565b9250817fffffffffffffffffffffffffffffffffffffffffffffffffffffffffffffffff0483118215151615610bfd57610bfc610c84565b5b828202905092915050565b6000610c1382610c7a565b9150610c1e83610c7a565b925082821015610c3157610c30610c84565b5b828203905092915050565b6000610c4782610c5a565b9050919050565b60008115159050919050565b600073ffffffffffffffffffffffffffffffffffffffff82169050919050565b6000819050919050565b7f4e487b7100000000000000000000000000000000000000000000000000000000600052601160045260246000fd5b7f4e487b7100000000000000000000000000000000000000000000000000000000600052601260045260246000fd5b610ceb81610c4e565b8114610cf657600080fd5b50565b610d0281610c7a565b8114610d0d57600080fd5b5056fea2646970667358221220d38c60eec1e9e3c0e844d9eadc24fee74d5a126765efb3be870240f116f055db64736f6c63430008000033",
  "linkReferences": {},
  "deployedLinkReferences": {}
}