{
  "_format": "hh-sol-artifact-1",
  "contractName": "Suncoin",
  "sourceName": "contracts/suncoin.sol",
  "abi": [
    {
      "inputs": [
        {
          "internalType": "string",
          "name": "name_",
          "type": "string"
        },
        {
          "internalType": "string",
          "name": "symbol_",
          "type": "string"
        }
      ],
      "stateMutability": "nonpayable",
      "type": "constructor"
    },
    {
      "anonymous": false,
      "inputs": [
        {
          "indexed": true,
          "internalType": "address",
          "name": "owner",
          "type": "address"
        },
        {
          "indexed": true,
          "internalType": "address",
          "name": "spender",
          "type": "address"
        },
        {
          "indexed": false,
          "internalType": "uint256",
          "name": "value",
          "type": "uint256"
        }
      ],
      "name": "Approval",
      "type": "event"
    },
    {
      "anonymous": false,
      "inputs": [
        {
          "indexed": true,
          "internalType": "address",
          "name": "from",
          "type": "address"
        },
        {
          "indexed": true,
          "internalType": "address",
          "name": "to",
          "type": "address"
        },
        {
          "indexed": false,
          "internalType": "uint256",
          "name": "value",
          "type": "uint256"
        }
      ],
      "name": "Transfer",
      "type": "event"
    },
    {
      "inputs": [
        {
          "internalType": "address",
          "name": "owner",
          "type": "address"
        },
        {
          "internalType": "address",
          "name": "spender",
          "type": "address"
        }
      ],
      "name": "allowance",
      "outputs": [
        {
          "internalType": "uint256",
          "name": "",
          "type": "uint256"
        }
      ],
      "stateMutability": "view",
      "type": "function"
    },
    {
      "inputs": [
        {
          "internalType": "address",
          "name": "spender",
          "type": "address"
        },
        {
          "internalType": "uint256",
          "name": "amount",
          "type": "uint256"
        }
      ],
      "name": "approve",
      "outputs": [
        {
          "internalType": "bool",
          "name": "",
          "type": "bool"
        }
      ],
      "stateMutability": "nonpayable",
      "type": "function"
    },
    {
      "inputs": [
        {
          "internalType": "address",
          "name": "account",
          "type": "address"
        }
      ],
      "name": "balanceOf",
      "outputs": [
        {
          "internalType": "uint256",
          "name": "",
          "type": "uint256"
        }
      ],
      "stateMutability": "view",
      "type": "function"
    },
    {
      "inputs": [
        {
          "internalType": "address",
          "name": "account",
          "type": "address"
        },
        {
          "internalType": "uint256",
          "name": "amount",
          "type": "uint256"
        }
      ],
      "name": "burn",
      "outputs": [],
      "stateMutability": "nonpayable",
      "type": "function"
    },
    {
      "inputs": [],
      "name": "decimals",
      "outputs": [
        {
          "internalType": "uint8",
          "name": "",
          "type": "uint8"
        }
      ],
      "stateMutability": "view",
      "type": "function"
    },
    {
      "inputs": [
        {
          "internalType": "address",
          "name": "spender",
          "type": "address"
        },
        {
          "internalType": "uint256",
          "name": "subtractedValue",
          "type": "uint256"
        }
      ],
      "name": "decreaseAllowance",
      "outputs": [
        {
          "internalType": "bool",
          "name": "",
          "type": "bool"
        }
      ],
      "stateMutability": "nonpayable",
      "type": "function"
    },
    {
      "inputs": [
        {
          "internalType": "address",
          "name": "spender",
          "type": "address"
        },
        {
          "internalType": "uint256",
          "name": "addedValue",
          "type": "uint256"
        }
      ],
      "name": "increaseAllowance",
      "outputs": [
        {
          "internalType": "bool",
          "name": "",
          "type": "bool"
        }
      ],
      "stateMutability": "nonpayable",
      "type": "function"
    },
    {
      "inputs": [
        {
          "internalType": "address",
          "name": "to",
          "type": "address"
        },
        {
          "internalType": "uint256",
          "name": "amount",
          "type": "uint256"
        }
      ],
      "name": "mint",
      "outputs": [],
      "stateMutability": "nonpayable",
      "type": "function"
    },
    {
      "inputs": [],
      "name": "name",
      "outputs": [
        {
          "internalType": "string",
          "name": "",
          "type": "string"
        }
      ],
      "stateMutability": "view",
      "type": "function"
    },
    {
      "inputs": [],
      "name": "symbol",
      "outputs": [
        {
          "internalType": "string",
          "name": "",
          "type": "string"
        }
      ],
      "stateMutability": "view",
      "type": "function"
    },
    {
      "inputs": [],
      "name": "totalSupply",
      "outputs": [
        {
          "internalType": "uint256",
          "name": "",
          "type": "uint256"
        }
      ],
      "stateMutability": "view",
      "type": "function"
    },
    {
      "inputs": [
        {
          "internalType": "address",
          "name": "recipient",
          "type": "address"
        },
        {
          "internalType": "uint256",
          "name": "amount",
          "type": "uint256"
        }
      ],
      "name": "transfer",
      "outputs": [
        {
          "internalType": "bool",
          "name": "",
          "type": "bool"
        }
      ],
      "stateMutability": "nonpayable",
      "type": "function"
    },
    {
      "inputs": [
        {
          "internalType": "address",
          "name": "sender",
          "type": "address"
        },
        {
          "internalType": "address",
          "name": "recipient",
          "type": "address"
        },
        {
          "internalType": "uint256",
          "name": "amount",
          "type": "uint256"
        }
      ],
      "name": "transferFrom",
      "outputs": [
        {
          "internalType": "bool",
          "name": "",
          "type": "bool"
        }
      ],
      "stateMutability": "nonpayable",
      "type": "function"
    }
  ],
  "bytecode": "0x608060405230600560006101000a81548173ffffffffffffffffffffffffffffffffffffffff021916908373ffffffffffffffffffffffffffffffffffffffff1602179055503480156200005257600080fd5b5060405162001c1a38038062001c1a8339818101604052810190620000789190620001d4565b816003908051906020019062000090929190620000b2565b508060049080519060200190620000a9929190620000b2565b50505062000378565b828054620000c090620002e4565b90600052602060002090601f016020900481019282620000e4576000855562000130565b82601f10620000ff57805160ff191683800117855562000130565b8280016001018555821562000130579182015b828111156200012f57825182559160200191906001019062000112565b5b5090506200013f919062000143565b5090565b5b808211156200015e57600081600090555060010162000144565b5090565b60006200017962000173846200027b565b62000247565b9050828152602081018484840111156200019257600080fd5b6200019f848285620002ae565b509392505050565b600082601f830112620001b957600080fd5b8151620001cb84826020860162000162565b91505092915050565b60008060408385031215620001e857600080fd5b600083015167ffffffffffffffff8111156200020357600080fd5b6200021185828601620001a7565b925050602083015167ffffffffffffffff8111156200022f57600080fd5b6200023d85828601620001a7565b9150509250929050565b6000604051905081810181811067ffffffffffffffff8211171562000271576200027062000349565b5b8060405250919050565b600067ffffffffffffffff82111562000299576200029862000349565b5b601f19601f8301169050602081019050919050565b60005b83811015620002ce578082015181840152602081019050620002b1565b83811115620002de576000848401525b50505050565b60006002820490506001821680620002fd57607f821691505b602082108114156200031457620003136200031a565b5b50919050565b7f4e487b7100000000000000000000000000000000000000000000000000000000600052602260045260246000fd5b7f4e487b7100000000000000000000000000000000000000000000000000000000600052604160045260246000fd5b61189280620003886000396000f3fe608060405234801561001057600080fd5b50600436106100cf5760003560e01c806340c10f191161008c5780639dc29fac116100665780639dc29fac14610228578063a457c2d714610244578063a9059cbb14610274578063dd62ed3e146102a4576100cf565b806340c10f19146101be57806370a08231146101da57806395d89b411461020a576100cf565b806306fdde03146100d4578063095ea7b3146100f257806318160ddd1461012257806323b872dd14610140578063313ce56714610170578063395093511461018e575b600080fd5b6100dc6102d4565b6040516100e991906114c7565b60405180910390f35b61010c60048036038101906101079190611034565b610366565b60405161011991906114ac565b60405180910390f35b61012a610384565b6040516101379190611629565b60405180910390f35b61015a60048036038101906101559190610fe5565b61038e565b60405161016791906114ac565b60405180910390f35b610178610486565b6040516101859190611644565b60405180910390f35b6101a860048036038101906101a39190611034565b61048f565b6040516101b591906114ac565b60405180910390f35b6101d860048036038101906101d39190611034565b61053b565b005b6101f460048036038101906101ef9190610f80565b610549565b6040516102019190611629565b60405180910390f35b610212610591565b60405161021f91906114c7565b60405180910390f35b610242600480360381019061023d9190611034565b610623565b005b61025e60048036038101906102599190611034565b610631565b60405161026b91906114ac565b60405180910390f35b61028e60048036038101906102899190611034565b61071c565b60405161029b91906114ac565b60405180910390f35b6102be60048036038101906102b99190610fa9565b61073a565b6040516102cb9190611629565b60405180910390f35b6060600380546102e39061178d565b80601f016020809104026020016040519081016040528092919081815260200182805461030f9061178d565b801561035c5780601f106103315761010080835404028352916020019161035c565b820191906000526020600020905b81548152906001019060200180831161033f57829003601f168201915b5050505050905090565b600061037a6103736107c1565b84846107c9565b6001905092915050565b6000600254905090565b600061039b848484610994565b6000600160008673ffffffffffffffffffffffffffffffffffffffff1673ffffffffffffffffffffffffffffffffffffffff16815260200190815260200160002060006103e66107c1565b73ffffffffffffffffffffffffffffffffffffffff1673ffffffffffffffffffffffffffffffffffffffff16815260200190815260200160002054905082811015610466576040517f08c379a000000000000000000000000000000000000000000000000000000000815260040161045d90611569565b60405180910390fd5b61047a856104726107c1565b8584036107c9565b60019150509392505050565b60006012905090565b600061053161049c6107c1565b8484600160006104aa6107c1565b73ffffffffffffffffffffffffffffffffffffffff1673ffffffffffffffffffffffffffffffffffffffff16815260200190815260200160002060008873ffffffffffffffffffffffffffffffffffffffff1673ffffffffffffffffffffffffffffffffffffffff1681526020019081526020016000205461052c919061167b565b6107c9565b6001905092915050565b6105458282610c15565b5050565b60008060008373ffffffffffffffffffffffffffffffffffffffff1673ffffffffffffffffffffffffffffffffffffffff168152602001908152602001600020549050919050565b6060600480546105a09061178d565b80601f01602080910402602001604051908101604052809291908181526020018280546105cc9061178d565b80156106195780601f106105ee57610100808354040283529160200191610619565b820191906000526020600020905b8154815290600101906020018083116105fc57829003601f168201915b5050505050905090565b61062d8282610d75565b5050565b600080600160006106406107c1565b73ffffffffffffffffffffffffffffffffffffffff1673ffffffffffffffffffffffffffffffffffffffff16815260200190815260200160002060008573ffffffffffffffffffffffffffffffffffffffff1673ffffffffffffffffffffffffffffffffffffffff168152602001908152602001600020549050828110156106fd576040517f08c379a00000000000000000000000000000000000000000000000000000000081526004016106f4906115e9565b60405180910390fd5b6107116107086107c1565b858584036107c9565b600191505092915050565b60006107306107296107c1565b8484610994565b6001905092915050565b6000600160008473ffffffffffffffffffffffffffffffffffffffff1673ffffffffffffffffffffffffffffffffffffffff16815260200190815260200160002060008373ffffffffffffffffffffffffffffffffffffffff1673ffffffffffffffffffffffffffffffffffffffff16815260200190815260200160002054905092915050565b600033905090565b600073ffffffffffffffffffffffffffffffffffffffff168373ffffffffffffffffffffffffffffffffffffffff161415610839576040517f08c379a0000000000000000000000000000000000000000000000000000000008152600401610830906115c9565b60405180910390fd5b600073ffffffffffffffffffffffffffffffffffffffff168273ffffffffffffffffffffffffffffffffffffffff1614156108a9576040517f08c379a00000000000000000000000000000000000000000000000000000000081526004016108a090611529565b60405180910390fd5b80600160008573ffffffffffffffffffffffffffffffffffffffff1673ffffffffffffffffffffffffffffffffffffffff16815260200190815260200160002060008473ffffffffffffffffffffffffffffffffffffffff1673ffffffffffffffffffffffffffffffffffffffff168152602001908152602001600020819055508173ffffffffffffffffffffffffffffffffffffffff168373ffffffffffffffffffffffffffffffffffffffff167f8c5be1e5ebec7d5bd14f71427d1e84f3dd0314c0f7b2291e5b200ac8c7c3b925836040516109879190611629565b60405180910390a3505050565b600073ffffffffffffffffffffffffffffffffffffffff168373ffffffffffffffffffffffffffffffffffffffff161415610a04576040517f08c379a00000000000000000000000000000000000000000000000000000000081526004016109fb906115a9565b60405180910390fd5b600073ffffffffffffffffffffffffffffffffffffffff168273ffffffffffffffffffffffffffffffffffffffff161415610a74576040517f08c379a0000000000000000000000000000000000000000000000000000000008152600401610a6b906114e9565b60405180910390fd5b610a7f838383610f4c565b60008060008573ffffffffffffffffffffffffffffffffffffffff1673ffffffffffffffffffffffffffffffffffffffff16815260200190815260200160002054905081811015610b05576040517f08c379a0000000000000000000000000000000000000000000000000000000008152600401610afc90611549565b60405180910390fd5b8181036000808673ffffffffffffffffffffffffffffffffffffffff1673ffffffffffffffffffffffffffffffffffffffff16815260200190815260200160002081905550816000808573ffffffffffffffffffffffffffffffffffffffff1673ffffffffffffffffffffffffffffffffffffffff1681526020019081526020016000206000828254610b98919061167b565b925050819055508273ffffffffffffffffffffffffffffffffffffffff168473ffffffffffffffffffffffffffffffffffffffff167fddf252ad1be2c89b69c2b068fc378daa952ba7f163c4a11628f55a4df523b3ef84604051610bfc9190611629565b60405180910390a3610c0f848484610f51565b50505050565b600073ffffffffffffffffffffffffffffffffffffffff168273ffffffffffffffffffffffffffffffffffffffff161415610c85576040517f08c379a0000000000000000000000000000000000000000000000000000000008152600401610c7c90611609565b60405180910390fd5b610c9160008383610f4c565b8060026000828254610ca3919061167b565b92505081905550806000808473ffffffffffffffffffffffffffffffffffffffff1673ffffffffffffffffffffffffffffffffffffffff1681526020019081526020016000206000828254610cf8919061167b565b925050819055508173ffffffffffffffffffffffffffffffffffffffff16600073ffffffffffffffffffffffffffffffffffffffff167fddf252ad1be2c89b69c2b068fc378daa952ba7f163c4a11628f55a4df523b3ef83604051610d5d9190611629565b60405180910390a3610d7160008383610f51565b5050565b600073ffffffffffffffffffffffffffffffffffffffff168273ffffffffffffffffffffffffffffffffffffffff161415610de5576040517f08c379a0000000000000000000000000000000000000000000000000000000008152600401610ddc90611589565b60405180910390fd5b610df182600083610f4c565b60008060008473ffffffffffffffffffffffffffffffffffffffff1673ffffffffffffffffffffffffffffffffffffffff16815260200190815260200160002054905081811015610e77576040517f08c379a0000000000000000000000000000000000000000000000000000000008152600401610e6e90611509565b60405180910390fd5b8181036000808573ffffffffffffffffffffffffffffffffffffffff1673ffffffffffffffffffffffffffffffffffffffff168152602001908152602001600020819055508160026000828254610ece91906116d1565b92505081905550600073ffffffffffffffffffffffffffffffffffffffff168373ffffffffffffffffffffffffffffffffffffffff167fddf252ad1be2c89b69c2b068fc378daa952ba7f163c4a11628f55a4df523b3ef84604051610f339190611629565b60405180910390a3610f4783600084610f51565b505050565b505050565b505050565b600081359050610f658161182e565b92915050565b600081359050610f7a81611845565b92915050565b600060208284031215610f9257600080fd5b6000610fa084828501610f56565b91505092915050565b60008060408385031215610fbc57600080fd5b6000610fca85828601610f56565b9250506020610fdb85828601610f56565b9150509250929050565b600080600060608486031215610ffa57600080fd5b600061100886828701610f56565b935050602061101986828701610f56565b925050604061102a86828701610f6b565b9150509250925092565b6000806040838503121561104757600080fd5b600061105585828601610f56565b925050602061106685828601610f6b565b9150509250929050565b61107981611717565b82525050565b600061108a8261165f565b611094818561166a565b93506110a481856020860161175a565b6110ad8161181d565b840191505092915050565b60006110c560238361166a565b91507f45524332303a207472616e7366657220746f20746865207a65726f206164647260008301527f65737300000000000000000000000000000000000000000000000000000000006020830152604082019050919050565b600061112b60228361166a565b91507f45524332303a206275726e20616d6f756e7420657863656564732062616c616e60008301527f63650000000000000000000000000000000000000000000000000000000000006020830152604082019050919050565b600061119160228361166a565b91507f45524332303a20617070726f766520746f20746865207a65726f20616464726560008301527f73730000000000000000000000000000000000000000000000000000000000006020830152604082019050919050565b60006111f760268361166a565b91507f45524332303a207472616e7366657220616d6f756e742065786365656473206260008301527f616c616e636500000000000000000000000000000000000000000000000000006020830152604082019050919050565b600061125d60288361166a565b91507f45524332303a207472616e7366657220616d6f756e742065786365656473206160008301527f6c6c6f77616e63650000000000000000000000000000000000000000000000006020830152604082019050919050565b60006112c360218361166a565b91507f45524332303a206275726e2066726f6d20746865207a65726f2061646472657360008301527f73000000000000000000000000000000000000000000000000000000000000006020830152604082019050919050565b600061132960258361166a565b91507f45524332303a207472616e736665722066726f6d20746865207a65726f20616460008301527f64726573730000000000000000000000000000000000000000000000000000006020830152604082019050919050565b600061138f60248361166a565b91507f45524332303a20617070726f76652066726f6d20746865207a65726f2061646460008301527f72657373000000000000000000000000000000000000000000000000000000006020830152604082019050919050565b60006113f560258361166a565b91507f45524332303a2064656372656173656420616c6c6f77616e63652062656c6f7760008301527f207a65726f0000000000000000000000000000000000000000000000000000006020830152604082019050919050565b600061145b601f8361166a565b91507f45524332303a206d696e7420746f20746865207a65726f2061646472657373006000830152602082019050919050565b61149781611743565b82525050565b6114a68161174d565b82525050565b60006020820190506114c16000830184611070565b92915050565b600060208201905081810360008301526114e1818461107f565b905092915050565b60006020820190508181036000830152611502816110b8565b9050919050565b600060208201905081810360008301526115228161111e565b9050919050565b6000602082019050818103600083015261154281611184565b9050919050565b60006020820190508181036000830152611562816111ea565b9050919050565b6000602082019050818103600083015261158281611250565b9050919050565b600060208201905081810360008301526115a2816112b6565b9050919050565b600060208201905081810360008301526115c28161131c565b9050919050565b600060208201905081810360008301526115e281611382565b9050919050565b60006020820190508181036000830152611602816113e8565b9050919050565b600060208201905081810360008301526116228161144e565b9050919050565b600060208201905061163e600083018461148e565b92915050565b6000602082019050611659600083018461149d565b92915050565b600081519050919050565b600082825260208201905092915050565b600061168682611743565b915061169183611743565b9250827fffffffffffffffffffffffffffffffffffffffffffffffffffffffffffffffff038211156116c6576116c56117bf565b5b828201905092915050565b60006116dc82611743565b91506116e783611743565b9250828210156116fa576116f96117bf565b5b828203905092915050565b600061171082611723565b9050919050565b60008115159050919050565b600073ffffffffffffffffffffffffffffffffffffffff82169050919050565b6000819050919050565b600060ff82169050919050565b60005b8381101561177857808201518184015260208101905061175d565b83811115611787576000848401525b50505050565b600060028204905060018216806117a557607f821691505b602082108114156117b9576117b86117ee565b5b50919050565b7f4e487b7100000000000000000000000000000000000000000000000000000000600052601160045260246000fd5b7f4e487b7100000000000000000000000000000000000000000000000000000000600052602260045260246000fd5b6000601f19601f8301169050919050565b61183781611705565b811461184257600080fd5b50565b61184e81611743565b811461185957600080fd5b5056fea264697066735822122054a4b93f60b4b68d22d7e8d676e380482533e79050704ec48a10a7afaaff6aac64736f6c63430008000033",
  "linkReferences": {},
  "deployedLinkReferences": {}
}